:020000040000fa
:10000000f87f0020810b0000f30d0000170f0000a7
:1000100000000000000000000000000000000000e0
:10002000000000000000000000000000af0f000012
:100030000000000000000000af0f0000af0f000044
:10004000af0f0000af0f0000af0f0000af0f0000b8
:10005000af0f0000af0f0000af0f0000af0f0000a8
:10006000af0f0000af0f0000af0f0000af0f000098
:10007000af0f0000af0f0000af0f0000af0f000088
:10008000af0f0000f50d0000af0f0000af0f000034
:10009000af0f0000af0f0000190f0000af0f0000fe
:1000a000af0f0000af0f0000af0f0000af0f000058
:020000040000fa
:1000b000f8b5c046f8bc08bc9e467047610b00000e
:1000c000f8b5c046f8bc08bc9e467047390b000026
:020000040000fa
:0800d0004803000001000000dc
:020000040000fa
:1000d8000023f0b506001500b1b007910393079906
:1000e8000b78002b00d10de101235b420c9310ab80
:1000f80000240e9380230b940d940f930b5d002b1b
:1001080001d0252b2ad1002c06d02200300000f087
:1001180035fe079b1b190793079b1a78252a00d0e1
:10012800e5e0013304930793022301219c4610273d
:10013800079803782b2b1ad025d8202b1ad0232bdd
:100148001dd02a2b28d000f09ffd0d90079b1a7810
:10015800303a092a31d801330793f7e70134cde75c
:100168000b9b05930b4301300b930790e0e70423a7
:100178000b9a0fe00b9b0593059a08230ae00b9b4b
:1001880005933b43efe72d2bead0302bd9d16246bc
:100198000b9b05931343e6e72b6801301a1d1b6878
:1001a80007902a600d93002b07da0b9a5b420592a1
:1001b800012205990d934a400b920b9bda0702d551
:1001c800022293430b93079b1a782e2a0ed1002202
:1001d800581c0c9207905a782a2a28d10233079380
:1001e8002b681a1d1b682a6005930c9307a800f05a
:1001f80031fe079b0700187800f0e9ff692800d155
:1002080083e035dc632800d1dde01bdc252800d144
:10021800eae0612859d0049b012207930023524247
:100228000c920b930d93784900930232e7e000f0ab
:100238002bfd0c90079b1a78303a092ad6d801333f
:100248000793f7e7642860d06728e4dc2a003900c0
:1002580008a800f047fe002800d1b0e0079b0ba9d2
:100268005a1c07921b7808aa300000f0dbff3de01b
:10027800702800d17de016dc6e2800d198e06f2848
:10028800c9d12b000022390008a800f0a1f90028e4
:1002980000d194e0079b08aa01330ba9300007930b
:1002a80000f0beff22e0752840d078284fd0732890
:1002b800b1d1802f00d082e0079b2a6801330793d1
:1002c800131d2b601268002389e02a00390008a852
:1002d80000f008fe002800d171e0079b0ba95a1c0a
:1002e80007921b7808aa300000f09cff2418039b93
:1002f8001c19a34200dc84e04f22444b1a600123fe
:100308005b420393039831b0f0bd2b000122390002
:1003180008a800f05df9002851d0079b08aa01330e
:100328000ba93000079300f0b2f9dfe72b00002299
:10033800390008a800f04cf9002840d0079b08aa0b
:1003480001330ba93000079300f06affcee72b00ba
:100358000022390008a800f03bf900282fd0079b9d
:100368005a1c07921b7808aa0ba9300000f05aff04
:10037800bce72b000022f02108a800f029f900288a
:100388001dd0079b099a01330793089b13430dd18e
:100398001d4f1637380000f087fe390002000b9b0e
:1003a80000930d9b300000f059fa9fe77823dae7b5
:1003b800039b39001a1908a82b0000f031fb079b92
:1003c8000133079393e7802ff9d1079b01330793f4
:1003d8002b681a1d1b682a6008aa137001230ba931
:1003e800300000f021ff81e7802fe8d10122079b30
:1003f8000549013307930b9b049300930d9b1c3114
:10040800d0e703946be6c046f00f00009000002090
:020000040000fa
:10041800f0b5060085b00f0015001c008b4265d8aa
:1004280001d1824262d82100280000f06dfe390017
:100438000090300000f068fe009b21001b1a1a0093
:100448002800039300f054fe00900191019bbb42e9
:1004580046d802d1009bb34242d8009b019c039a24
:1004680001200021f61aa74100f042fe039b002b51
:100478002fd0019b009adb0754081c43019b5d08a1
:10048800039b9c46bd422ed801d1b4422bd83200e2
:100498003b00121bab41012692185b410027b6189e
:1004a8005f4101235b429c446346002bead18019db
:1004b8007941039a04000d003000390000f00cfe69
:1004c800039a06000f0000f013fe241a8d41200045
:1004d80029000a9b002b01d01e605f6005b0f0bdab
:1004e80000200021c2e7b6197f41dae70020002189
:0204f800efe72c
:020000040000fa
:0204fa00704749
:020000040000fa
:1004fc002f4a0023936113612e4a08219171073909
:10050c0051712d4a13831100920dcb681342fcd00c
:10051c002a4b1b689b0e9b02802292001343264a97
:10052c00d3611100920dcb681342fcd0224b0222f6
:10053c001a831900d201cb681342fcd0204b214afc
:10054c001a62190004224b681a42fcd11c4b1e4a39
:10055c009a62190010224b681a42fcd1184a942353
:10056c004021d15010005431402243581a42fcd043
:10057c00134ad4234021d1501000943140224358c7
:10058c001a42fcd00e4aec234221d1501000aa3161
:10059c00402243581a42fcd0094af8234021d1503a
:1005ac001000b831402243581a42fcd07047c04664
:1005bc000010004000040040000c0040206080004f
:0c05cc000018004006210100032101007e
:020000040000fa
:1005d80010b588293cd015dc81294dd003dc802951
:1005e8004ad0002010bd822911d08429f9d1196878
:1005f800002a26d00a1d1a6000228b5e0360db17d2
:10060800436011e0a02930d010dc9029e9d11968a5
:100618000724002a2ed00919a1430a0008321a60bb
:100628000b684c68036044600120dbe7c02901d0f7
:10063800f029d6d11a68111d1960136803600023c8
:10064800dee70c1d1c600b689bb203604260ebe7a1
:100658001968002a04d00a1d1a600023cb56cde77a
:100668000c1d1c600b68dbb2efe71a68111d1960de
:100678001368c3e70731cfe71968002a03d00a1dba
:0e0688001a600b68bae70c1d1c600b68dde7fa
:020000040000fa
:10069600f0b54b6889b005930b6807009c46079335
:1006a600cb680c008e68049310685168cd0f44d057
:1006b6000b000200002150429941059b002b08dbec
:1006c6000222634693430793002d02d1079b5a07e4
:1006d6002ad5731e07aa02920a22009301920b00e2
:1006e6000200200000f0f8f8002d02d1079b5a07ff
:1006f6001ed501382d23002d00d1023b049a135438
:1007060023695a1e049b121a1918079b3800009376
:10071600330000f0a4f87b68db0503d563689842d4
:1007260000da180009b0f0bd1b07db0ff31ad1e79a
:100736001b07e5d501382023e0e7059b002bbfda30
:02074600c4e706
:020000040000fa
:10074800500000202c000000000000008400002061
:1007580004000000000000009400002003000000d6
:1007680000000000880000200400000000000000d5
:100778000000002050000000000000009800002049
:10078800200000000100000001000000030000003c
:100798000000000000000000000000000000000051
:1007a800000000007c0000207c0000200800000001
:1007b800000000008c00002008000000000000007d
:1007c80000000000000000006666666666666666f1
:020000040000fa
:1007d800002934d00123002210b488422cd30124ec
:1007e8002407a14204d2814202d209011b01f8e781
:1007f800e400a14204d2814202d249005b00f8e73a
:10080800884201d3401a1a434c08a04202d3001b65
:100818005c0822438c08a04202d3001b9c08224398
:10082800cc08a04202d3001bdc082243002803d0d6
:100838001b0901d00909e3e7101c10bc704701b57a
:10084800002000f0f3fc02bd0029f8d003b5fff743
:0c085800c1ff0ebc4243891a1847c0467d
:020000040000fa
:10086400f0b51d00012389b014000e9a06001a4049
:100874000391029201d1a5420ad8220003993000c3
:1008840000f07efaa54203d82500280009b0f0bd87
:100894002f1b01973a00102f00d91022202104a801
:1008a40000f07cfc019b0f2b0ed80f2204a93a40c8
:1008b400300000f065fa029b002be6d12200039978
:1008c400300000f05dfae0e7102204a9300000f0e7
:0a08d40057fa019b103b0193e4e783
:020000040000fa
:1008de00f7b5040019000a9fe368666800933b6849
:1008ee00100001932369013b1c00002e00da012643
:1008fe000022009dea5435000123002c03dc002b5e
:10090e001cd02000febd02000a4309d1002d07dcd9
:10091e00089a921b5219002af1dd019a9207eed520
:10092e00099b099adb1700f0ccf98c460099013c23
:10093e00130030320a55013d6146dee710233a6856
:06094e009a433a60dde768
:020000040000fa
:10095400f8b5002000f066fa0a2000f0f7fb00f07a
:1009640063fb8020c000010000f094fb0e4b19686b
:100974000e4800f03bfc00f081fb0d4e37000d4c9f
:10098400250014350ae000233b70200000f0d6fa5d
:10099400094b198889b2280000f018fb00f0ccfb41
:1009a4003378002bfad0eee78400002065100000b5
:0c09b40096000020b00f0000940000200e
:020000040000fa
:1009c000174b01221a7019000b8c1342fcd1154be6
:1009d0001b681a02e021c9000a409b065b0f1a43fc
:1009e0000f4b9a8506225a70033a5a7302329a7054
:1009f00008321a81f3325a8192001a825208da813f
:100a000007229a7104225a711e32da701a78402134
:100a10000a431a701a00138c9bb2002bfbd170474b
:080a2000000c0043206080007f
:020000040000fa
:100a280010b584291fd007dc812915d0822922d04e
:100a3800802911d0002010bd90291cd008dc8829fd
:100a4800f8d119680c1d1c600b6803601a7010e05f
:100a5800a02901d0c029edd119680c1d1c600b68b4
:100a680003601a6005e019680c1d1c600b680360c0
:100a78001a800120dfe719680c1d1c600b680360f1
:080a88001a60d2175a60f4e76e
:020000040000fa
:100a900000230e4a10b513600d4a13600d4a13600f
:100aa0000d4a13600d4a13600d4a536213610133fe
:100ab000936000f088fb00f0acfb0a4c0a4b9c42b0
:100ac00000d310bd08cc9847f8e7c0468c00002042
:100ad0000c0000200800002000000020040000207e
:0c0ae00010000020bc000000c00000005e
:020000040000fa
:100aec0010b50e4b0e4a934207d30e4801680029ed
:100afc0007d14368002b04d110bd002119700133bc
:100b0c00f1e704008368084a9bb20c349b009b58a5
:100b1c0042682000984780002018e7e7000000207a
:0c0b2c00000000204807000064110000d9
:020000040000fa
:100b380010b5064c2378002b07d1054b002b02d0ab
:100b4800044800e000bf0123237010bd50000020be
:100b58000000000000000000044b10b5002b03d07b
:100b68000349044800e000bf10bdc0460000000073
:080b7800540000200000000001
:020000040000fa
:100b800010b50a4b98470a4b9847fff7afff094b40
:100b9000ff229343084a9360084b9847084b9847b5
:100ba000084b9847fff7d6fefee7c046fb0400005f
:100bb000fb0400000000000000ed00e0910a0000ce
:080bc000fb040000fb0400002f
:020000040000fa
:100bc800bff35f8f62b60c4bc42080001a580b49e4
:100bd8001140c02212020a431a50802292021a605f
:100be80004301a5806491140c02212040a431a5008
:100bf8008022d2031a60704700e100e0ff00ffff87
:040c0800ffff00ffeb
:020000040000fa
:100c0c0070b5002818d0002918d000250c4a0124f2
:100c1c00072605e06b00c35a13850135a94209d09c
:100c2c00137e2342fcd053683340012bf2d0435d3a
:100c3c001385f2e7012070bd0020fce70120fae7e4
:040c4c00000c004256
:020000040000fa
:100c50000d4b01221a6019000b691a42fcd10a4b94
:100c6000ea22d2001a6003221a7300229a833321e7
:100c7000997206490a6001325a721202da801a0029
:100c80001369002bfcd17047002000427400002043
:020000040000fa
:100c9000030010b51a78202a0dd011000939042953
:100ca00009d900212b2a02d02d2a01d1013101338b
:100cb00000200a2404e00133ece760430133801a8a
:100cc0001a78303a092af8d9002900d1404210bddb
:020000040000fa
:100cd000002b11d1002a0fd1002900d1002802d009
:100ce0000021c943081c07b4024802a14018029021
:100cf00003bdc0464105000003b4684601b5029833
:100d0000fff78afb019b9e4602b00cbc7047c046b1
:020000040000fa
:100d10001c2101231b04984201d3000c10391b0a2b
:100d2000984201d3000a08391b09984201d30009ef
:100d3000043902a2105c40187047c0460403020246
:0c0d4000010101010000000000000000a3
:020000040000fa
:100d4c000a4b0b4a1a600b4a9a81c02292025a60d3
:100d5c001a00d369002bfcd1044a136802210b43ff
:100d6c001360d369002bfcd17047c046000c0042c5
:080d7c0084010041098affff18
:020000040000fa
:100d8400436870b50400d80510d52569954200d98b
:100d940015002a00606900f0f7f9226963695b199c
:100da400551b0022636125611a7070bddb06fcd4fb
:080db400200000f027faf8e727
:020000040000fa
:100dbc0013b50b006a46d41d5a68c1b22170d20516
:100dcc0005d55a69c0b2541c5c61117016bd012264
:100ddc002100180000f012fa002801d02078f5e765
:060dec0001204042f2e785
:020000040000fa
:020df200fee71a
:020000040000fa
:100df40010b50a4b5b7a002b0ed0084b987ac0b220
:100e040033229a72064b1b68002b05d0002803d0ae
:100e1400034b59681b68984710bdc0460020004228
:040e24007400002036
:020000040000fa
:100e280010b50b4b06225a6000f02ef800f098f827
:100e3800fff760fbfff786ff00f0dcf900f070f9c0
:100e4800fff7bafdfff700fffff7bafe10bdc04677
:040e58000040004115
:020000040000fa
:100e5c00f0b5050000200a4a4400a65c002e02d121
:100e6c0012195078f0bd296801300f78c0b2b74222
:100e7c0003d112190131507829600a28ebd9f1e716
:040e8c00f00f000063
:020000040000fa
:100e90008023db0500221a819a7901210a439a7185
:100ea0009b7803221340022b08d08023db05013af4
:0e0eb0009a701900013a8b791342fcd07047fa
:020000040000fa
:100ebe0070b5140016000a004e430d00511e8a41f3
:100ece005242144001003200180000f096f986429a
:0e0ede0003d02900fff779fc0400200070bd4e
:020000040000fa
:100eec00002380290fdb812901dd83290bd1072108
:100efc00136807338b431900083111601a685b685b
:0a0f0c0002604360012318007047e3
:020000040000fa
:020f1600fee7f4
:020000040000fa
:100f180010b5074b9879c0b204229a71054b1b682b
:100f2800002b03d0034b59681b68984710bdc04677
:080f3800000c00436c000020d6
:020000040000fa
:100f400010b5084c2368196800f020f80123002828
:100f500005db23680a20196800f060f9c30f5842c6
:080f600010bdc046b4000020e2
:020000040000fa
:100f6800074b012256215a5401315a541c39222068
:100f780058548a315a54b132b53999547047c046d9
:040f880000280040fd
:020000040000fa
:100f8c0070b50e00050000f08df83300040002006f
:100f9c0001212800fff78dff001b431e98414042a2
:020fac0070bd16
:020000040000fa
:020fae00fee75c
:020000040000fa
:100fb00057696e646f77212157696e646f772121bd
:100fc0000d000000414443203a2025640d0a000032
:020000040000fa
:100fd0000fb407b5054b04aa1b6802ca1868019232
:100fe00000f072f803b008bc04b01847b400002049
:020000040000fa
:100ff00068076c094c836a9074a07ac00080688886
:0e10000000846c820081286e696c2900250036
:020000040000fa
:10100e00002310b5934206d103201840421e904192
:0e101e009b08c01810bdc45ccc540133f2e72f
:020000040000fa
:10102c00054a136802210b431360110002220b695d
:0c103c001a42fcd17047c0460020004260
:020000040000fa
:1010480070b50d001400012801d0200070bd2100ea
:0c1058002800fff7d7fd0028f9d0f6e7cc
:020000040000fa
:1010640010b5044b01221a7000f0baf8024b188034
:0c10740010bdc046960000209400002033
:020000040000fa
:10108000044a137802210b431370138c9bb2002b7c
:08109000fbd17047000c004386
:020000040000fa
:10109800044bd88119821a00138c9bb2002bfbd108
:0810a8007047c046000c004334
:020000040000fa
:1010b0000378002b06d0030001331a78002afbd1f5
:0810c000181a70470020fce73c
:020000040000fa
:1010c80013b50400019201aafff702f86368db0672
:0810d80001d50120404216bdc4
:020000040000fa
:1010e000d0400b1cd1409c46203ad340184352427a
:0810f00063469340184370476a
:020000040000fa
:1010f8009140031c90409c46203a93401943524229
:081108006346d3401943704710
:020000040000fa
:1011100010b5002903d1fff7fbfd203002e0081cc9
:08112000fff7f6fd10bdc0460b
:020000040000fa
:101128008623db05fc2201219950014a1a62704787
:04113800354200003c
:020000040000fa
:10113c008023db0504225a7019004b781342fcd033
:04114c0030bf7047f9
:020000040000fa
:10115000034b9883190040220b691a42fcd1704757
:041160000020004229
:020000040000fa
:10116400b51100000f100000251200002512000028
:041174002512000040
:020000040000fa
:1011780010b500f04bf8024b1860586010bdc0461f
:041188007c000020c7
:020000040000fa
:10118c0010b5002a05d00023cc5cc4540133934223
:04119c00fad110bdb7
:020000040000fa
:1011a000002a06d00300c9b2821819700133934295
:0411b000fbd17047b8
:020000040000fa
:1011b4008a18914201d10020704700230b7001313d
:0211c400f7e74b
:020000040000fa
:1011c60010b5fff7d6ff00f034f800f032f810bd86
:020000040000fa
:0e11d6000300413b192b01d82023184370471a
:020000040000fa
:0c11e400014b988c80b27047000c004357
:020000040000fa
:0c11f000014b1860596070476c00002033
:020000040000fa
:0c11fc00014b80225a6070470040004107
:020000040000fa
:0a12080010b50068fff71cff10bdd1
:020000040000fa
:02121200704723
:020000040000fa
:0812140000487047980000201b
:020000040000fa
:08121c0010b5fff7cdfd10bd78
:020000040000fa
:0412240000207047ef
:020000040000fa
:0412280000207047eb
:020000040000fa
:04122c0000207047e7
:020000040000fa
:0412300000207047e3
:020000040000fa
:041234007047c046f9
:020000040000fa
:021238007047fd
:020000040000fa
:0200000400807a
:04400000770600b08f
:020000040000fa
:0200000400807a
:04400400bb00ffffff
:00000001FF
